:100000000C945D000C9485000C9485000C94850084
:100010000C9485000C9485000C9485000C9485004C
:100020000C9485000C9485000C9485000C940104BC
:100030000C9485000C9485000C9485000C9485002C
:100040000C94B7030C9485000C9485000C948500E7
:100050000C9485000C9485000C9485000C9485000C
:100060000C9485000C9485000000000024002700FB
:100070002A0000000000250028002B0004040404CE
:100080000404040402020202020203030303030342
:10009000010204081020408001020408102001021F
:1000A00004081020000000080002010000030407FB
:1000B0000000000000000000830611241FBECFEFE7
:1000C000D8E0DEBFCDBF11E0A0E0B1E0E4E8FEE0A3
:1000D00002C005900D92AC35B107D9F721E0ACE52F
:1000E000B1E001C01D92AF3AB207E1F710E0CDE5F3
:1000F000D0E004C02197FE010E943A07CC35D10719
:10010000C9F70E94BD040C9440070C9400008F9224
:100110009F92AF92BF92FF920F931F93CF93DF9363
:10012000F09094012BE02F1508F44CC0209196011B
:1001300008E512E0021B110927FD1395000F111F9E
:10014000000F111F20919501C8E8D0E0C21BD10912
:1001500027FDD395CC0FDD1FCC0FDD1F4E010D2EDB
:10016000000CAA08BB089801012E000C440B550B8B
:10017000281939094A095B09DC010E94F50624EBBC
:1001800030E040E050E00E94CB06820E931EA41E99
:10019000B51E8C169D062CF0E801801691060CF415
:1001A000E4012297CC0FDD1F2FB7F8948F2D90E03C
:1001B000FC01EE0FFF1FE80FF91FE059FE4FD2833D
:1001C000C1832FBFDF91CF911F910F91FF90BF90FF
:1001D000AF909F908F90089590E0FC01EC55FF4FF9
:1001E0002491FC01E057FF4F3491FC01E458FF4F8C
:1001F000E491EE23C9F0222339F0233001F1A8F471
:10020000213019F1223029F1F0E0EE0FFF1FEE58F6
:10021000FF4FA591B4918FB7F894EC91611126C06E
:1002200030953E233C938FBF08952730A9F02830A6
:10023000C9F0243049F7809180008F7D03C0809100
:1002400080008F7780938000DFCF84B58F7784BD67
:10025000DBCF84B58F7DFBCF8091B0008F7780930B
:10026000B000D2CF8091B0008F7DF9CF3E2BDACF96
:10027000CF93DF9390E0FC01E057FF4F2491845827
:100280009F4FFC0184918823D1F090E0880F991F43
:10029000FC01E859FF4FA591B491FC01EE58FF4FC6
:1002A000C591D49161110EC09FB7F8948C91E22F43
:1002B000E0958E238C932881E223E8839FBFDF9112
:1002C000CF9108958FB7F894EC91E22BEC938FBF08
:1002D000F6CF8E50806480937C0080917A00806499
:1002E00080937A0080917A0086FDFCCF809178001F
:1002F0009091790008953FB7F89480916C019091A6
:100300006D01A0916E01B0916F0126B5A89B05C04B
:100310002F3F19F00196A11DB11D3FBFBA2FA92F84
:10032000982F8827BC01CD01620F711D811D911D81
:1003300042E0660F771F881F991F4A95D1F70895ED
:100340008F929F92AF92BF92CF92DF92EF92FF92E5
:100350004B015C010E947B016B017C010E947B01CF
:100360006C197D098E099F09683E734081059105CE
:10037000A8F321E0821A9108A108B10888EEC80EFE
:1003800083E0D81EE11CF11C81149104A104B10486
:1003900029F7FF90EF90DF90CF90BF90AF909F90A4
:1003A0008F900895AF92BF92CF92DF92EF92FF921B
:1003B0000F931F93CF93DF936C017B018B01040F8D
:1003C000151FEB015E01AE18BF08C017D10759F029
:1003D0006991D601ED91FC910190F081E02DC6016B
:1003E0000995892B79F7C501DF91CF911F910F9165
:1003F000FF90EF90DF90CF90BF90AF900895089559
:1004000090E080E008958F929F92AF92BF920F93F9
:100410001F93CF93DF93CDB7DEB7A1970FB6F894B4
:10042000DEBF0FBECDBF19A2423008F44AE08E01F4
:100430000F5D1F4F842E912CB12CA12CA50194018E
:100440000E94FD06E62FB901CA01EA3044F5E05DDD
:10045000D801EE938D01232B242B252B79F790E0E7
:1004600080E0109769F0FD0101900020E9F73197D5
:10047000AF014A1B5B0BBD0187E991E00E94D201ED
:10048000A1960FB6F894DEBF0FBECDBFDF91CF911E
:100490001F910F91BF90AF909F908F900895E95C4E
:1004A000D7CFFC0101900020E9F73197AF01481B3D
:1004B000590BBC0187E991E00C94D201CF93DF93F3
:1004C000EC0160E08E810E94EC0061E08E810E9470
:1004D000EC0060E08E810E94EC008BE891E00197D7
:1004E000F1F7DF91CF910895CF92DF92EF92FF92D3
:1004F0000F931F93CF93DF936C017C0187E0E80E8D
:10050000F11CD0E0C0E0062F10E0B8010C2E02C0B4
:10051000759567950A94E2F76170F70181917F0103
:100520000E94EC002196C430D10579F7C601DF9115
:10053000CF911F910F91FF90EF90DF90CF900C948F
:100540005E02CF92DF92EF92FF920F931F93CF93B1
:10055000DF93EC01F62E642F8C810E94EC008D81DC
:100560008F3F19F060E00E94EC000F2D10E08F85A6
:1005700084FF25C06E0187E0C80ED11CF12CE12C50
:10058000B8010E2C02C0759567950A94E2F7617068
:10059000F60181916F010E94EC00FFEFEF1AFF0A54
:1005A00088E0E816F10461F7CE01DF91CF911F9149
:1005B0000F91FF90EF90DF90CF900C945E02B80106
:1005C00084E0759567958A95E1F7CE010E947402E3
:1005D0006F2DCE01DF91CF911F910F91FF90EF9082
:1005E000DF90CF900C94740240E0682F87E991E08F
:1005F0000C94A10281E00E94F4028BE39FE1019739
:10060000F1F70895CF93DF93823029F49091A601FA
:1006100098609093A6018093AA011092AB0180E4A8
:100620008093AC0180E18093AD0180E58093AE01C1
:1006300061E080919B010E94380180919C018F3F75
:1006400019F061E00E94380161E080919D010E94F3
:100650003801C7E9D1E09E01275931408091A601B8
:1006600084FD0BC084E090E021962817390744F4FC
:1006700061E08E810E943801EECF88E090E0F4CFF7
:100680008BE39DE00197F1F760E080919B010E9470
:10069000EC0060E080919D010E94EC0080919C0143
:1006A0008F3F19F060E00E94EC008091A60184FD6C
:1006B00034C063E087E991E00E947402CBE4D6E4A1
:1006C000CE010197F1F763E087E991E00E9474029F
:1006D0002197F1F763E087E991E00E94740283E5D6
:1006E00092E00197F1F762E087E991E00E947402DD
:1006F0008091A60180620E94F40284E08093A701A9
:100700008CE00E94F4020E94FA0282E08093A80129
:1007100086E0DF91CF910C94F40280620E94F40293
:100720008BE496E40197F1F78091A60180620E9424
:10073000F40283E592E00197F1F78091A6018062CF
:100740000E94F402D5CFE091AA01E23040F4E150DA
:10075000F0E0E956FE4F848980680C94F402E1E0F1
:10076000F7CF41E00E94A10281E090E008951F923E
:100770000F920FB60F9211242F933F938F939F9355
:10078000AF93BF938091680190916901A0916A0134
:10079000B0916B013091670123E0230F2D3758F59D
:1007A0000196A11DB11D209367018093680190936C
:1007B0006901A0936A01B0936B0180916C019091E3
:1007C0006D01A0916E01B0916F010196A11DB11D47
:1007D00080936C0190936D01A0936E01B0936F01B3
:1007E000BF91AF919F918F913F912F910F900FBE2D
:1007F0000F901F90189526E8230F0296A11DB11D9A
:10080000D2CF1F920F920FB60F9211242F933F93C6
:100810004F935F936F937F938F939F93AF93BF9308
:10082000CF93DF93EF93FF9380915D01C0915C01C3
:10083000D0E087FF24C01092850010928400809140
:100840005D018F5F80935D0180915D01082E000C3A
:10085000990B8C179D0724F480915D018C30C4F1B5
:100860008091840090918500049680349C4908F41E
:100870007AC08091840090918500049676C0809122
:100880005D01082E000C990B8C179D07C4F6E091B2
:100890005D018E2FEE0F990BFC01EE0FFF1FE80F8D
:1008A000F91FE059FE4F808186FFC9CFE0915D01BD
:1008B0008E2FEE0F990BFC01EE0FFF1FE80FF91FB3
:1008C000E059FE4F808160E08F730E94EC00B7CF4B
:1008D0002091840030918500E0915D018E2FEE0F14
:1008E000990BFC01EE0FFF1FE80FF91FE059FE4FB7
:1008F00081819281820F931F909389008093880059
:10090000E0915D018E2FEE0F990BFC01EE0FFF1FA2
:10091000E80FF91FE059FE4F808186FF11C0E0917A
:100920005D018E2FEE0F990BFC01EE0FFF1FE80FFC
:10093000F91FE059FE4F808161E08F730E94EC0047
:10094000FF91EF91DF91CF91BF91AF919F918F91E7
:100950007F916F915F914F913F912F910F900FBEBB
:100960000F901F90189580E49CE9909389008093E4
:1009700088008FEF80935D01E3CF789484B5826027
:1009800084BD84B5816084BD85B5826085BD85B533
:10099000816085BD80916E00816080936E001092B1
:1009A000810080918100826080938100809181002C
:1009B00081608093810080918000816080938000BD
:1009C0008091B10084608093B1008091B00081601B
:1009D0008093B00080917A00846080937A00809147
:1009E0007A00826080937A0080917A00816080939F
:1009F0007A0080917A00806880937A001092C1001A
:100A000060E08EE00E94380160E08FE00E943801D3
:100A100061E084E00E94380161E085E00E943801D5
:100A200061E086E00E943801809194018C3008F0EA
:100A300051C061E083E00E94380180919401282F29
:100A400030E0F901EE0FFF1FE20FF31FE059FE4FF8
:100A50009081907C93609083109295011092960102
:100A60002CE0622F0E942E07829FB001112430E0FB
:100A700020E0AB01420F531FFA01EE0FFF1FE40FFE
:100A8000F51FE059FE4F908196FD16C02F5F3F4F36
:100A90002C30310571F781110FC01092800082E077
:100AA000809381001092850010928400B19A809109
:100AB0006F00826080936F00E09194018E2F90E030
:100AC000FC01EE0FFF1FE80FF91FE059FE4F808178
:100AD0008064808382E00E9402030E94FA028CE01C
:100AE00091E00E9451020E94A3038AE191E00E94DA
:100AF000510268EB7BE080E090E00E94A0010E9440
:100B0000FA028FE00E94690190936601809365016B
:100B10008824839480E0A82E80E0B82E99249394B2
:100B20008EE00E9469018C018FE00E946901EC0156
:100B300080916501909166019E01281B390BC901C6
:100B400037FF03C091958195910904970CF460C01B
:100B5000D0936601C09365010E94FA0283E291E09E
:100B60000E9451020E94A3036E010D2E000CEE089C
:100B7000FF084AE0C701B601F7FE0EC041E06DE292
:100B800087E991E00E94A10266277727CB016C19C3
:100B90007D098E099F094AE00E94030210926401B8
:100BA000C017D10774F58091630181112AC080912B
:100BB0006401882331F10E94FA0283E391E00E94EC
:100BC00051020E94A3038AE391E00E94510260E077
:100BD00086E00E94EC0061E085E00E94EC0060E0AD
:100BE00084E00E94EC0090E080E00E9487006AEAC6
:100BF00070E080E090E00E94A0019092630110926A
:100C00006201A114B10409F48BCF0E94000088CFC7
:100C100090926401C017D10734F280916301882358
:100C2000C9F10E94FA0286E491E00E9451020E94FA
:100C3000A30381E591E00E94510260E085E00E94FB
:100C4000EC0061E084E00E94EC008AE590E00E9404
:100C500087006AEA70E080E090E00E94A0011092B4
:100C600063012FB7F8948091680190916901A09178
:100C70006A01B0916B012FBF80935E0190935F0179
:100C8000A0936001B09361019092620161E086E0FF
:100C90000E94EC002FB7F89480916801909169014F
:100CA000A0916A01B0916B012FBF40915E015091FC
:100CB0005F016091600170916101841B950BA60B2F
:100CC000B70B8C329140A105B10508F49ACF609121
:100CD000620168256093620186E00E94EC002FB7F4
:100CE000F8948091680190916901A0916A01B09196
:100CF0006B012FBF80935E0190935F01A093600111
:100D0000B09361017ECFCF9310929A011092990116
:100D100084E091E0909398018093970188E080931C
:100D20009B01CFEFC0939C0187E080939D0189E0F8
:100D300080939E018AE080939F018BE08093A001C5
:100D40008CE08093A1011092A2011092A301109255
:100D5000A4011092A5011092A60181E00E94020355
:100D600080915C018C30A0F491E0980F90935C012D
:100D70008093940190E0FC01EE0FFF1FE80FF91F34
:100D8000E059FE4F88EB9BE092838183CF910895D9
:100D9000C0939401FBCF052E97FB1EF400940E9494
:100DA000E20657FD07D00E94FD0607FC03D04EF473
:100DB0000C94E20650954095309521953F4F4F4F4A
:100DC0005F4F089590958095709561957F4F8F4FF7
:100DD0009F4F08950E941F07A59F900DB49F900DEF
:100DE000A49F800D911D11240895B7FF0C94EA066D
:100DF0000E94EA06821B930B0895A1E21A2EAA1BF9
:100E0000BB1BFD010DC0AA1FBB1FEE1FFF1FA217BA
:100E1000B307E407F50720F0A21BB30BE40BF50BB7
:100E2000661F771F881F991F1A9469F76095709540
:100E3000809590959B01AC01BD01CF010895A29FC3
:100E4000B001B39FC001A39F700D811D1124911D9E
:100E5000B29F700D811D1124911D0895991B79E099
:100E600004C0991F961708F0961B881F7A95C9F73A
:100E700080950895EE0FFF1F0590F491E02D0994E1
:040E8000F894FFCF14
:100E840000000000B103D2010002FF014163746954
:100E9400766174696F6E20656E00636F7572732E70
:100EA4002E2E005265676C61676520736575696CE9
:100EB400203A00417563756E6500616E6F6D616CFB
:100EC40069652E2E2E004368616E67656D656E74CC
:0C0ED400006F6273657276652E2E2E0092
:00000001FF
